{
  "contractName": "SupplyChain",
  "abi": [
    {
      "inputs": [],
      "stateMutability": "nonpayable",
      "type": "constructor"
    },
    {
      "anonymous": false,
      "inputs": [
        {
          "indexed": false,
          "internalType": "string",
          "name": "name",
          "type": "string"
        },
        {
          "indexed": false,
          "internalType": "uint256",
          "name": "price",
          "type": "uint256"
        },
        {
          "indexed": false,
          "internalType": "address",
          "name": "seller",
          "type": "address"
        }
      ],
      "name": "ProductAdded",
      "type": "event"
    },
    {
      "inputs": [],
      "name": "owner",
      "outputs": [
        {
          "internalType": "address",
          "name": "",
          "type": "address"
        }
      ],
      "stateMutability": "view",
      "type": "function",
      "constant": true
    },
    {
      "inputs": [
        {
          "internalType": "uint256",
          "name": "",
          "type": "uint256"
        }
      ],
      "name": "products",
      "outputs": [
        {
          "internalType": "string",
          "name": "name",
          "type": "string"
        },
        {
          "internalType": "uint256",
          "name": "price",
          "type": "uint256"
        },
        {
          "internalType": "address",
          "name": "seller",
          "type": "address"
        }
      ],
      "stateMutability": "view",
      "type": "function",
      "constant": true
    },
    {
      "inputs": [
        {
          "internalType": "string",
          "name": "_name",
          "type": "string"
        },
        {
          "internalType": "uint256",
          "name": "_price",
          "type": "uint256"
        }
      ],
      "name": "addProduct",
      "outputs": [],
      "stateMutability": "nonpayable",
      "type": "function"
    },
    {
      "inputs": [
        {
          "internalType": "uint256",
          "name": "_index",
          "type": "uint256"
        }
      ],
      "name": "getProduct",
      "outputs": [
        {
          "internalType": "string",
          "name": "",
          "type": "string"
        },
        {
          "internalType": "uint256",
          "name": "",
          "type": "uint256"
        },
        {
          "internalType": "address",
          "name": "",
          "type": "address"
        }
      ],
      "stateMutability": "view",
      "type": "function",
      "constant": true
    },
    {
      "inputs": [],
      "name": "getProductsCount",
      "outputs": [
        {
          "internalType": "uint256",
          "name": "",
          "type": "uint256"
        }
      ],
      "stateMutability": "view",
      "type": "function",
      "constant": true
    }
  ],
  "bytecode": "0x608060405234801561001057600080fd5b50336000806101000a81548173ffffffffffffffffffffffffffffffffffffffff021916908373ffffffffffffffffffffffffffffffffffffffff160217905550610c74806100606000396000f3fe608060405234801561001057600080fd5b50600436106100575760003560e01c80635786fd401461005c5780637acc0b201461007a5780638da5cb5b146100ac578063b15247d9146100ca578063b9db15b4146100e6575b600080fd5b610064610118565b6040516100719190610516565b60405180910390f35b610094600480360381019061008f9190610571565b610125565b6040516100a39392919061066f565b60405180910390f35b6100b4610207565b6040516100c191906106ad565b60405180910390f35b6100e460048036038101906100df91906107fd565b61022b565b005b61010060048036038101906100fb9190610571565b6103c3565b60405161010f9392919061066f565b60405180910390f35b6000600180549050905090565b6001818154811061013557600080fd5b906000526020600020906003020160009150905080600001805461015890610888565b80601f016020809104026020016040519081016040528092919081815260200182805461018490610888565b80156101d15780601f106101a6576101008083540402835291602001916101d1565b820191906000526020600020905b8154815290600101906020018083116101b457829003601f168201915b5050505050908060010154908060020160009054906101000a900473ffffffffffffffffffffffffffffffffffffffff16905083565b60008054906101000a900473ffffffffffffffffffffffffffffffffffffffff1681565b60008054906101000a900473ffffffffffffffffffffffffffffffffffffffff1673ffffffffffffffffffffffffffffffffffffffff163373ffffffffffffffffffffffffffffffffffffffff16146102b9576040517f08c379a00000000000000000000000000000000000000000000000000000000081526004016102b090610905565b60405180910390fd5b600060405180606001604052808481526020018381526020013373ffffffffffffffffffffffffffffffffffffffff1681525090506001819080600181540180825580915050600190039060005260206000209060030201600090919091909150600082015181600001908161032f9190610ad1565b506020820151816001015560408201518160020160006101000a81548173ffffffffffffffffffffffffffffffffffffffff021916908373ffffffffffffffffffffffffffffffffffffffff16021790555050507ffe822fdb3e27be88daa614140ef04b3b2ba09a7c3639f2c695cc9d7ab891d70e8383336040516103b69392919061066f565b60405180910390a1505050565b6060600080600180549050841061040f576040517f08c379a000000000000000000000000000000000000000000000000000000000815260040161040690610bef565b60405180910390fd5b60006001858154811061042557610424610c0f565b5b906000526020600020906003020190508060000181600101548260020160009054906101000a900473ffffffffffffffffffffffffffffffffffffffff1682805461046f90610888565b80601f016020809104026020016040519081016040528092919081815260200182805461049b90610888565b80156104e85780601f106104bd576101008083540402835291602001916104e8565b820191906000526020600020905b8154815290600101906020018083116104cb57829003601f168201915b50505050509250935093509350509193909250565b6000819050919050565b610510816104fd565b82525050565b600060208201905061052b6000830184610507565b92915050565b6000604051905090565b600080fd5b600080fd5b61054e816104fd565b811461055957600080fd5b50565b60008135905061056b81610545565b92915050565b6000602082840312156105875761058661053b565b5b60006105958482850161055c565b91505092915050565b600081519050919050565b600082825260208201905092915050565b60005b838110156105d85780820151818401526020810190506105bd565b60008484015250505050565b6000601f19601f8301169050919050565b60006106008261059e565b61060a81856105a9565b935061061a8185602086016105ba565b610623816105e4565b840191505092915050565b600073ffffffffffffffffffffffffffffffffffffffff82169050919050565b60006106598261062e565b9050919050565b6106698161064e565b82525050565b6000606082019050818103600083015261068981866105f5565b90506106986020830185610507565b6106a56040830184610660565b949350505050565b60006020820190506106c26000830184610660565b92915050565b600080fd5b600080fd5b7f4e487b7100000000000000000000000000000000000000000000000000000000600052604160045260246000fd5b61070a826105e4565b810181811067ffffffffffffffff82111715610729576107286106d2565b5b80604052505050565b600061073c610531565b90506107488282610701565b919050565b600067ffffffffffffffff821115610768576107676106d2565b5b610771826105e4565b9050602081019050919050565b82818337600083830152505050565b60006107a061079b8461074d565b610732565b9050828152602081018484840111156107bc576107bb6106cd565b5b6107c784828561077e565b509392505050565b600082601f8301126107e4576107e36106c8565b5b81356107f484826020860161078d565b91505092915050565b600080604083850312156108145761081361053b565b5b600083013567ffffffffffffffff81111561083257610831610540565b5b61083e858286016107cf565b925050602061084f8582860161055c565b9150509250929050565b7f4e487b7100000000000000000000000000000000000000000000000000000000600052602260045260246000fd5b600060028204905060018216806108a057607f821691505b6020821081036108b3576108b2610859565b5b50919050565b7f4f6e6c7920746865206f776e65722063616e206164642070726f647563747300600082015250565b60006108ef601f836105a9565b91506108fa826108b9565b602082019050919050565b6000602082019050818103600083015261091e816108e2565b9050919050565b60008190508160005260206000209050919050565b60006020601f8301049050919050565b600082821b905092915050565b6000600883026109877fffffffffffffffffffffffffffffffffffffffffffffffffffffffffffffffff8261094a565b610991868361094a565b95508019841693508086168417925050509392505050565b6000819050919050565b60006109ce6109c96109c4846104fd565b6109a9565b6104fd565b9050919050565b6000819050919050565b6109e8836109b3565b6109fc6109f4826109d5565b848454610957565b825550505050565b600090565b610a11610a04565b610a1c8184846109df565b505050565b5b81811015610a4057610a35600082610a09565b600181019050610a22565b5050565b601f821115610a8557610a5681610925565b610a5f8461093a565b81016020851015610a6e578190505b610a82610a7a8561093a565b830182610a21565b50505b505050565b600082821c905092915050565b6000610aa860001984600802610a8a565b1980831691505092915050565b6000610ac18383610a97565b9150826002028217905092915050565b610ada8261059e565b67ffffffffffffffff811115610af357610af26106d2565b5b610afd8254610888565b610b08828285610a44565b600060209050601f831160018114610b3b5760008415610b29578287015190505b610b338582610ab5565b865550610b9b565b601f198416610b4986610925565b60005b82811015610b7157848901518255600182019150602085019450602081019050610b4c565b86831015610b8e5784890151610b8a601f891682610a97565b8355505b6001600288020188555050505b505050505050565b7f50726f6475637420696e646578206f7574206f6620626f756e64730000000000600082015250565b6000610bd9601b836105a9565b9150610be482610ba3565b602082019050919050565b60006020820190508181036000830152610c0881610bcc565b9050919050565b7f4e487b7100000000000000000000000000000000000000000000000000000000600052603260045260246000fdfea26469706673582212202c0c372de5bf65d1a8f7d18080f97f375d1017e44441fa172292722b1b09818164736f6c63430008110033",
  "immutableReferences": {},
  "source": "// contracts/SupplyChain.sol\r\n// SPDX-License-Identifier: MIT\r\npragma solidity >=0.4.22 <0.9.0;\r\n\r\ncontract SupplyChain {\r\n    address public owner;\r\n\r\n    constructor() public {\r\n        owner = msg.sender;\r\n    }\r\n\r\n    struct Product {\r\n        string name;\r\n        uint256 price;\r\n        address seller;\r\n    }\r\n\r\n    Product[] public products;\r\n\r\n    event ProductAdded(string name, uint256 price, address seller);\r\n\r\n    function addProduct(string memory _name, uint256 _price) public {\r\n        require(msg.sender == owner, \"Only the owner can add products\");\r\n        Product memory newProduct = Product({\r\n            name: _name,\r\n            price: _price,\r\n            seller: msg.sender\r\n        });\r\n        products.push(newProduct);\r\n        emit ProductAdded(_name, _price, msg.sender);\r\n    }\r\n\r\n    function getProduct(uint256 _index) public view returns (string memory, uint256, address) {\r\n        require(_index < products.length, \"Product index out of bounds\");\r\n        Product storage product = products[_index];\r\n        return (product.name, product.price, product.seller);\r\n    }\r\n\r\n    function getProductsCount() public view returns (uint256) {\r\n        return products.length;\r\n    }\r\n}\r\n",
  "sourcePath": "C:\\Users\\HP\\Desktop\\supply_chain_project\\contracts\\SupplyChain.sol",
  "compiler": {
    "name": "solc",
    "version": "0.8.17+commit.8df45f5f.Emscripten.clang"
  },
  "schemaVersion": "3.4.15",
  "updatedAt": "2024-04-22T18:17:19.983Z",
  "networkType": "ethereum",
  "devdoc": {
    "kind": "dev",
    "methods": {},
    "version": 1
  },
  "userdoc": {
    "kind": "user",
    "methods": {},
    "version": 1
  }
}